:1020000058200020612100005D2100005D210000BA
:1020100000000000000000000000000000000000C0
:102020000000000000000000000000005D21000032
:1020300000000000000000005D2100005D210000A4
:102040005D2100005D2100005D2100005D21000098
:102050005D2100005D2100005D2100005D21000088
:102060005D2100005D2100005D2100005D21000078
:102070005D2100005D2100005D2100005D21000068
:102080005D2100005D2100005D2100005D21000058
:102090005D21000000000000000000005D21000044
:1020A0005D2100005D2100005D2100005D21000038
:1020B0000000000010B5064C2378002B07D1054B1B
:1020C000002B02D0044800E000BF0123237010BDA4
:1020D0000400002000000000702E0000044B10B52A
:1020E000002B03D00349044800E000BF10BDC046E8
:1020F0000000000008000020702E000070B50400F1
:102100000D001600002802D00800431E984134221A
:102110000449054B9847320029002368200098475E
:1021200070BDC046042D00007122000070B504008F
:102130000D001600002802D00800431E98413D22E1
:102140000449054B984732002900636820009847EE
:1021500070BDC046042D000071220000FEE70000A3
:102160002148224970B50023884235D10021204BF7
:10217000204A934235D3FF221F4B032193431F4A2A
:102180000C2593600222082430261D4B1D485A62FC
:10219000C3788B431343C370C378AB432343C370EB
:1021A000194B987BB0430600202030439873987BEE
:1021B000A84304439C73987B884302439A7380230B
:1021C000124A51680B435360114B9847114B984783
:1021D000FEE7C458043314600F4CCA18A242F8D367
:1021E000C4E702C3C5E7C046702E0000000000200F
:1021F00004000020540000200020000000ED00E05A
:10220000FC70004100500041004800410040004186
:10221000BD2C00004D2C000004000020064B1A7A53
:10222000D2B21A725A7AD2B25A729A7AD2B29A72D6
:10223000DA7AD2B2DA72704700040040074B10B568
:102240005A685A60064B9847064B98470820064C38
:10225000A047064B9847F720A04710BD004000411B
:102260001D2200007922000015240000B122000088
:10227000002800D100BE70470B4B0C48196A1A6A3F
:1022800001400220920F920702430A431A629A69A0
:10229000104308229861D9681142FCD08022196A43
:1022A0000A431A627047C046000800400000FF0F52
:1022B0000221024A93698B439361704700080040F2
:1022C000F8B504000E001700002804D0081E02D044
:1022D0001000431E9841F1220E490F4B98472500EC
:1022E000083528000D4B98470028F8D00024315DB0
:1022F00028000B4B98472800084B98470028FAD035
:102300000134A742F3D82800064B98470028FAD09A
:102310002000F8BD182D000071220000512A000095
:10232000412A00005B2A0000F7B506000D0001926B
:10233000002804D0081E02D01000431E98418622B7
:102340000A4952000A4B98470024370008373800E2
:10235000084B98470028F8D0074B38009847019B56
:1023600028550134A342F0D82000FEBD182D0000EE
:1023700071220000652A0000492A000070B504009F
:102380000D00002802D00800431E98410749084B61
:1023900034229847200029000830064B984700282F
:1023A00003D1054B6360054B236070BD182D000001
:1023B00071220000F929000029230000C122000039
:1023C00010B50400431E984153220549C0B2054B85
:1023D00098472000044B08309847002010BDC046A5
:1023E000182D000071220000252A000070B504009D
:1023F0000D00002802D00800431E984169220349BD
:10240000034B98472C60002070BDC046182D00007B
:1024100071220000C30709D580220A4B52009A603E
:102420005A78D209FCD1832252025A60030707D599
:10243000044B054A9A605A78D209FCD1034A5A6083
:102440007047C046000C00400380000003060100F6
:10245000014B024A1A6070470000002040420F0002
:1024600010B502490248034B984710BD3C000020BC
:1024700044000020ED23000010B50248024B9847AD
:1024800010BDC04644000020C123000070B5074DB8
:10249000074C286802220749A047286802220649FB
:1024A000A047286801220549A04770BD3C000020D4
:1024B000FD200000342D0000372D00003A2D0000D3
:1024C00070B5074D074C286802220749A0472868C5
:1024D00002220649A047286801220549A04770BD8D
:1024E0003C000020FD200000342D00003C2D0000A9
:1024F0003A2D000070B5074D074C286802220749A5
:10250000A047286802220649A047286801220549F9
:10251000A04770BD3C000020FD200000342D0000CD
:102520003F2D00003A2D000070B5074D074C28687C
:1025300002220749A047286801220649A0472868C7
:1025400001220549A04770BD3C000020FD2000008D
:10255000342D0000382D00003A2D000070B5104DCC
:10256000104C286802221049A047286801220F4910
:10257000A0470F4E286831000122A0472868012299
:102580000C49A047310028680122A0472868022290
:102590000949A047286801220849A04770BDC046E4
:1025A0003C000020FD200000342D0000382D0000EC
:1025B000422D00003D2D0000442D00003A2D00006A
:1025C00070B5074D074C286802220749A0472868C4
:1025D00002220649A047286801220549A04770BD8C
:1025E0003C000020FD200000342D0000472D00009D
:1025F0003A2D000070B5174B1B681B78082B0AD1C9
:10260000154D012215492868154CA047012215498E
:102610002868A04770BD7F2B0DD1104E0E4D0122B2
:1026200031000F4C2868A04701220E492868A047B6
:1026300001223100ECE70D2BECD1074D03220A49B2
:10264000074C2868A047012208492868A0470122B2
:102650000749DDE7400000203C0000204A2D000033
:10266000FD200000F82D00004C2D0000502D000032
:10267000812D000010B5034B012218680249034B5D
:10268000984710BD3C000020F82D0000FD20000000
:1026900010B5034B022218680249034B984710BD3E
:1026A0003C000020802D0000FD20000010B5034BF1
:1026B0009847034B9847034B984710BD612400008F
:1026C0007924000091260000F8B51C4B98471C4C5B
:1026D0001C4D2E221C492068A84734221B49206823
:1026E000A8471B4EB04730221A492068A8471A4B0A
:1026F00098471A4B98471A4B984710221949206857
:10270000A847B047184EB047142218492068A84778
:10271000B047174B98470127164E3A003100206802
:10272000154B9847154B1E60154B98473A003100E2
:102730002068A847134B9847EEE7C0469126000053
:102740003C000020FD200000542D0000832D0000DF
:1027500029250000B82D0000F52400005D250000AB
:10276000C1240000E92D00008D240000FA2D000096
:10277000C12500002C0000202D2100004000002079
:10278000F5250000BD270000074B10B50E220749B4
:102790001868074B9847BFF34F8F064B064ADA601D
:1027A000BFF34F8FC046FDE73C0000200F2E000016
:1027B000FD20000000ED00E00400FA0570B51F4C9C
:1027C0002368002B08D11E4B1B681B78772B01D088
:1027D00001235B4223601EE0772B06D1184B1B6858
:1027E0001B78612BF6D00023F4E7612B05D1144B45
:1027F0001B681B78722BF6D1ECE7722B0CD1104BB7
:102800001B681D786D2DEED10E4B092218680E49FC
:102810000E4B9847256070BD6D2BE4D1084B1B68AB
:102820001B780D2BDFD1074B0A2218680849074B8C
:102830009847FD232360074B9847C046200000209F
:10284000400000203C0000201E2E0000FD20000063
:10285000282E0000892700000D4B0122180030B5FA
:102860004A3001780F24914311430170190002206E
:1028700035310D784B33A5432843087018789043C1
:1028800002431A700B781C40202323430B7030BD89
:10289000004400410423044A116A0B431362034BB2
:1028A000034A5A807047C04600040040000C0040B4
:1028B0001440000010B5054B984700220449054B11
:1028C00005489847054B984710BDC046952800001D
:1028D000000800427D230000440000205928000029
:1028E00030B5C022802180240D4B0E481D00D2053A
:1028F0004902E40591609C62986201205161503563
:102900002978814329708021890291609C62064C5C
:102910009C62516151331A7882431A7030BDC046AF
:1029200000440041010000C0020000C010B5034B8C
:102930009847034B9847034B984710BD3D22000032
:10294000E1280000B5280000C3691942FCD1704796
:1029500010B504000321034B9847022223689343D8
:10296000236010BD492900001B4B70B5C3189B0A9A
:10297000DBB20400002B04D0184A19490020194B7F
:102980009847E369184DDB0711D402260321200084
:10299000A8472368334205D02000144B98473100E4
:1029A0002000A84703212000A8470523236020001A
:1029B0000121A84720000321A8470D4B20002360D8
:1029C0000721A847C02300209B026360094BA38115
:1029D000A0733034207070BD00F8FFBD41020000CC
:1029E000332E000071220000492900005129000007
:1029F0000400314056ECFFFF70B50500431E9841BE
:102A00000C00B4220449C0B2044B98472C6020004B
:102A1000034B984770BDC046332E00007122000062
:102A20006929000010B5046803212000034B984772
:102A3000022322681343236010BDC04649290000C9
:102A4000036889B2198570470368188DC0B2704752
:102A50000368187E0123184070470368187E8007BA
:102A6000C00F70470368187E4007C00F7047000012
:102A700010B5014B984710BD2D290000084910B52D
:102A80000B681A003032392A06D80A60054B012239
:102A90001868054B984710BD37330B60F6E7C04602
:102AA000240000203C000020FD2000000F2210B573
:102AB000074B084C1B7813402360074B9847074B84
:102AC000012207491868074B9847206810BDC04687
:102AD00050000020240000207D2A00003C0000203F
:102AE000F82D0000FD20000010B5044B044C1B78AD
:102AF0001B092360034B9847206810BD500000203D
:102B0000240000207D2A00000023F0B585B002AA31
:102B100013710293E923254C254D66685B01F31878
:102B2000244F0222244928680093B84702222349EF
:102B30002868B847224B234FF3180193009BBF1B13
:102B40001A785E1C204B1A70204B9847204B9847F0
:102B5000F319072B01D11F4B9847019A3300964276
:102B6000EED128682E25134B022214499847009B6A
:102B70005F1C1B781A00203A5F2A13D802AA137030
:102B8000002302AA53700A4B0122186802A9094BBC
:102B900098473B00B742EBD16368009810336360FD
:102BA00005B0F0BD02AB1D70EAE7C046240000206E
:102BB0003C000020FD200000802D0000F72D0000CB
:102BC000301D0000DFE2FFFF50000020E92A000076
:102BD000AD2A00007526000080218022074B4902A3
:102BE000920299609A60D961DA61986908439861A4
:102BF00098691043986159615A61704700440041D7
:102C00008022024B5202DA617047C0460044004104
:102C1000054B82B00193019B002B01DC02B0704791
:102C2000019B013BF6E7C04690F6000070B5802599
:102C3000044CAD026561044EE561B047E561B04703
:102C400070BDC04600440041112C000013B5124B6A
:102C50009847124B9847124B9847124B98471324AA
:102C6000114B013C9847002CFAD1431E0234012B32
:102C700000D8040001235B420193019BA34205DBC2
:102C80000A4B98470A4B98470A4BFCE70A4B984770
:102C9000019B0133F0E7C046712A00005124000077
:102CA000D92B0000AD260000092B00009126000062
:102CB000C9260000012C00002D2C000070B5002654
:102CC0000C4D0D4C641BA410A64209D1002600F047
:102CD000BFF80A4D0A4C641BA410A64205D170BD72
:102CE000B300EB5898470136EEE7B300EB5898472E
:102CF0000136F2E75C2E00005C2E00005C2E000026
:102D0000602E00002E2E2F68616C2F7372632F6867
:102D1000616C5F696F2E63002E2E2F68616C2F73BC
:102D200072632F68616C5F75736172745F73796E23
:102D3000632E63001B5B003430006D0034310034BF
:102D400034003B003337003333000800206F6B0042
:102D50000D007C0050726F6772616D206973206393
:102D60006F6E6669677572656420666F72203338AE
:102D7000343030206270732073706565642E0D0AE4
:102D80000D0A00546172676574204D435520626FCF
:102D90006172642069732041646166727569742090
:102DA00046656174686572204D30204578707265A3
:102DB00073732E0D0A0D0A00554152542070696E2E
:102DC0007320545820616E642052582075736564D6
:102DD0002077697468204350323130342062726940
:102DE0006467652E0D0A0D0A00202048656C6C6F23
:102DF00020576F726C6421202000202020207479DD
:102E0000706520736F6D657468696E673A20002085
:102E1000205741524D20424F4F54200D0A00202090
:102E2000217761726D21200020217265626F6F74BD
:102E30002120002E2E2F68706C2F736572636F6DCA
:102E40002F68706C5F736572636F6D2E6300000096
:102E5000F8B5C046F8BC08BC9E467047DD200000AF
:102E6000F8B5C046F8BC08BC9E467047B5200000C7
:042E700040420F00CD
:0400000300002000D9
:00000001FF
