:102000002020002001210000FD200000FD20000014
:1020100000000000000000000000000000000000C0
:10202000000000000000000000000000FD20000093
:102030000000000000000000FD200000FD20000066
:10204000FD200000FD200000FD200000FD2000001C
:10205000FD200000FD200000FD200000FD2000000C
:10206000FD200000FD200000FD200000FD200000FC
:10207000FD200000FD200000FD200000FD200000EC
:10208000FD200000FD200000FD200000FD200000DC
:10209000FD2000000000000000000000FD20000006
:1020A000FD200000FD200000FD200000FD200000BC
:1020B0000000000010B5064C2378002B07D1054B1B
:1020C000002B02D0044800E000BF0123237010BDA4
:1020D000000000200000000070220000044B10B53A
:1020E000002B03D00349044800E000BF10BDC046E8
:1020F000000000000400002070220000FEE7000045
:102100002148224970B50023884235D10021204B57
:10211000204A934235D3FF221F4B032193431F4A8A
:102120000C2593600222082430261D4B1D485A625C
:10213000C3788B431343C370C378AB432343C3704B
:10214000194B987BB0430600202030439873987B4E
:10215000A84304439C73987B884302439A7380236B
:10216000124A51680B435360114B9847114B9847E3
:10217000FEE7C458043314600F4CCA18A242F8D3C7
:10218000C4E702C3C5E7C04670220000000000207B
:10219000000000201C0000200020000000ED00E0F6
:1021A000FC700041005000410048004100400041E7
:1021B00009220000F521000000000020802180227B
:1021C000074B4902920299609A60D961DA61986975
:1021D0000843986198691043986159615A61704742
:1021E000004400418022024B5202DA617047C0462F
:1021F0000044004110B5024B9847024BFCE7C04633
:10220000BD210000E521000070B500260C4D0D4CED
:10221000641BA410A64209D1002600F019F80A4D4B
:102220000A4C641BA410A64205D170BDB300EB5844
:1022300098470136EEE7B300EB5898470136F2E7CE
:102240005C2200005C2200005C2200006022000092
:10225000F8B5C046F8BC08BC9E467047DD200000BB
:10226000F8B5C046F8BC08BC9E467047B5200000D3
:0400000300002000D9
:00000001FF
