:1020000030200020312100002D2100002D21000072
:1020100000000000000000000000000000000000C0
:102020000000000000000000000000002D21000062
:1020300000000000000000002D2100002D21000004
:102040002D2100002D2100002D2100002D21000058
:102050002D2100002D2100002D2100002D21000048
:102060002D2100002D2100002D2100002D21000038
:102070002D2100002D2100002D2100002D21000028
:102080002D2100002D2100002D2100002D21000018
:102090002D21000000000000000000002D210000A4
:1020A0002D2100002D2100002D2100002D210000F8
:1020B0000000000010B5064C2378002B07D1054B1B
:1020C000002B02D0044800E000BF0123237010BDA4
:1020D0000400002000000000FC270000044B10B5A5
:1020E000002B03D00349044800E000BF10BDC046E8
:1020F0000000000008000020FC27000070B504006C
:102100000D001600002802D00800431E984134221A
:102110000449054B9847320029002368200098475E
:1021200070BDC0468427000045220000FEE7000085
:102130002148224970B50023884235D10021204B27
:10214000204A934235D3FF221F4B032193431F4A5A
:102150000C2593600222082430261D4B1D485A622C
:10216000C3788B431343C370C378AB432343C3701B
:10217000194B987BB0430600202030439873987B1E
:10218000A84304439C73987B884302439A7380233B
:10219000124A51680B435360114B9847114B9847B3
:1021A000FEE7C458043314600F4CCA18A242F8D397
:1021B000C4E702C3C5E7C046FC27000000000020BA
:1021C000040000202C0000200020000000ED00E0B2
:1021D000FC700041005000410048004100400041B7
:1021E0003D2700000927000004000020064B1A7A52
:1021F000D2B21A725A7AD2B25A729A7AD2B29A7207
:10220000DA7AD2B2DA7270470004004010B50824BE
:10221000074A536823435360064B9847064B984739
:102220002000064CA047064B9847F720A04710BD5A
:1022300000400041ED2100004D220000012400007B
:10224000A9220000002800D100BE7047134A14489C
:10225000136A116A03400220890F890701430B4367
:10226000062113620F4B1B68DB045B0E180401434D
:1022700091611F210B40137713000422D96811428A
:10228000FCD0802299690A439A610822D9681142D8
:10229000FCD08022196A0A431A6270470008004085
:1022A0000000FF0F2460800070470000F8B50400B4
:1022B0000E001700002804D0081E02D01000431E94
:1022C0009841F1220E490F4B984725000835280008
:1022D0000D4B98470028F8D00024315D28000B4BA7
:1022E00098472800084B98470028FAD00134A742A5
:1022F000F3D82800064B98470028FAD02000F8BDF4
:102300009827000045220000692600005926000099
:1023100073260000F7B506000D000192002804D0D6
:10232000081E02D01000431E984186220A4952001E
:102330000A4B98470024370008373800084B984765
:102340000028F8D0074B38009847019B28550134E6
:10235000A342F0D82000FEBD9827000045220000CF
:102360007D2600006126000070B504000D000028E5
:1023700002D00800431E98410749084B3422984771
:10238000200029000830064B9847002803D1054B50
:102390006360054B236070BD982700004522000054
:1023A0001126000015230000AD22000010B5040026
:1023B000431E984153220549C0B2054B984720005F
:1023C000044B08309847002010BDC04698270000F5
:1023D000452200003D26000070B504000D000028D5
:1023E00002D00800431E984169220349034B9847D5
:1023F0002C60002070BDC0469827000045220000D8
:10240000C30709D580220A4B52009A605A78D20934
:10241000FCD1832252025A60030708D50422044BE0
:10242000FF329A605A78D209FCD1024A5A6070474A
:10243000000C004003040100014B024A1A6070477F
:102440000000002040420F0013B5074C01A92000F6
:10245000064B98472000064B98470C2205490198E7
:10246000054B984713BDC04620000020D92300002B
:10247000AD230000B4270000FD2000000D4B012219
:10248000180030B5D63001780F2491431143017004
:1024900019000320BB310D78D733A54328430870BA
:1024A0001878904302431A700B781C403023234362
:1024B0000B7030BD004400418023044A116A0B4375
:1024C0001362034B034A5A807047C0460004004021
:1024D000000C00401940000010B5054B9847002241
:1024E0000449054B05489847054B984710BDC04621
:1024F000B9240000001C00426923000020000020D5
:102500007D24000070B5114B98478024C0228021A3
:102510000F4B10481D00D2054902E40591609C62F2
:1025200098620120516150352978814329708021BA
:10253000890291609C62084C9C62516151331A7807
:1025400082431A70054B984770BDC0460D220000AB
:1025500000440041010000C0020000C0D924000076
:10256000C3691942FCD1704710B504000321034B25
:102570009847022223689343236010BD6125000021
:102580001B4B70B5C3189B0ADBB20400052B04D0AB
:10259000184A19490020194B9847E369184DDB0781
:1025A00011D4022603212000A8472368334205D016
:1025B0002000144B984731002000A8470321200039
:1025C000A8470523236020000121A84720000321FC
:1025D000A8470D4B200023600721A847C0230020F7
:1025E0009B026360094BA381A0733034207070BDDF
:1025F00000F8FFBD41020000C12700004522000095
:1026000061250000692500000400314056ECFFFF01
:1026100070B50500431E98410C00B4220449C0B2B5
:10262000044B98472C602000034B984770BDC04670
:10263000C1270000452200008125000010B5046874
:1026400003212000034B9847022322681343236091
:1026500010BDC04661250000036889B21985704726
:102660000368188DC0B270470368187E01231840B4
:1026700070470368187E8007C00F70470368187E94
:102680004007C00F7047000010B5014B984710BDC0
:102690000525000080218022074B490292029960A3
:1026A0009A60D961DA619869084398619869104322
:1026B000986159615A617047004400418022024B81
:1026C0005202DA617047C04600440041054B82B0B7
:1026D0000193019B002B01DC02B07047019B013B81
:1026E000F6E7C0468091020070B58026044DB60220
:1026F000EE61044CA047EE61A047A04770BDC04604
:1027000000440041CD26000010B5064B9847064B0B
:102710009847064B9847064B9847064B9847064BF9
:10272000FAE7C046892600003924000095260000FB
:1027300049240000E9260000BD26000070B50026EF
:102740000C4D0D4C641BA410A64209D1002600F0CC
:1027500045F80A4D0A4C641BA410A64205D170BD71
:10276000B300EB5898470136EEE7B300EB589847B3
:102770000136F2E7E8270000E8270000E82700001C
:10278000EC2700002E2E2F68616C2F7372632F6868
:10279000616C5F696F2E63002E2E2F68616C2F7342
:1027A00072632F68616C5F75736172745F73796EA9
:1027B000632E630048656C6C6F20576F726C6421E8
:1027C000002E2E2F68706C2F736572636F6D2F68EB
:1027D000706C5F736572636F6D2E6300F8B5C046F1
:1027E000F8BC08BC9E467047DD200000F8B5C04626
:0C27F000F8BC08BC9E467047B5200000F5
:0427FC0040420F0048
:0400000300002000D9
:00000001FF
